:10000000A8C00000B6C00000B4C00000B2C000002C
:10001000B0C00000AEC00000ACC00000AAC000002C
:10002000A8C00000A6C00000E6C0000005C1000096
:10003000A0C000009EC000009CC000009AC000004C
:1000400098C0000096C0000094C0000092C000005C
:1000500090C000008EC000008CC000008AC000006C
:1000600088C0000086C0000084C0000082C000007C
:1000700080C000007EC000007CC000007AC000008C
:1000800078C0000076C0000074C0000072C000009C
:1000900070C000006EC000006CC000006AC00000AC
:1000A00068C0000066C0000064C0000000010000DD
:1000B0003901120002000001012200220000230188
:1000C000160021000013010900030000FD000401D7
:1000D000030904F1000A02030904DD0012120352AD
:1000E00000650062006F006F0074006F0072000016
:1000F000000A0350004A00520043000000040309B4
:100100000409022200010100C032090400000103B9
:1001100000000009211101000122160007058103DA
:100120000800800600FF0A0001A1017508150026DD
:10013000FF00950609029102C012010002000000B2
:1001400020C016770400010102000101C102000075
:10015000000011241FBECFEFDAE0DEBFCDBF21E0EB
:10016000A0E0B1E001C01D92A130B207E1F702D0DA
:10017000B2C146CF80E88093610084E08093610043
:1001800014B88FEF85B917B888B91AB88BB91DB8EC
:100190008EB910BA81BB18D089EF90E00197F1F7C2
:1001A00000C0000083B7817F83BFF89483B781606C
:1001B00083BF7894889583B78E7F83BFEDCF80917E
:1001C000E80080FFFCCF089581E08093D70080EAAB
:1001D0008093D80082E189BD09B400FEFDCF80E99B
:1001E0008093D8001092E0001092000188E0809384
:1001F000E200789408951F920F920FB60F92112487
:100200008F938091E1001092E10083FF0FC0109264
:10021000E90081E08093EB001092EC0082E2809391
:10022000ED0088E08093F000109200018F910F9014
:100230000FBE0F901F9018951F920F920FB60F923E
:100240001124EF92FF920F931F932F933F934F939D
:100250005F936F937F938F939F93AF93BF93CF934E
:10026000DF93EF93FF931092E9008091E80083FF02
:1002700075C0D091F100C091F100E090F100809143
:10028000F100F12CF82A0091F1008091F10010E0CA
:10029000182B8091F1006091F10092EF9093E800AB
:1002A000C63009F065C02CEA30E04DED50E0F901B0
:1002B000A591B491EA16FB0609F04AC0F9013296FD
:1002C000A591B4910A171B0709F042C0F9013496B1
:1002D00045915491F9013696E49190E0962B8F3F29
:1002E000910519F010F08FEF90E0E81708F48E2FC9
:1002F0003EEF9091E800292F2570D9F392FD11C0AF
:10030000982F813208F090E2FA01292F21112AC09A
:10031000490F511D891B3093E8008111EACF9032BB
:1003200041F3FF91EF91DF91CF91BF91AF919F91F9
:100330008F917F916F915F914F913F912F911F917D
:100340000F91FF90EF900F900FBE0F901F90189598
:10035000295F3F4F4217530709F0A9CF81E28093ED
:10036000EB00DFCF64916093F10021503196CECF46
:10037000C53049F48EEF8093E80021DF8E2D806830
:100380008093E300CECFC93049F5D11169C0E09226
:1003900000018EEF8093E80021E08BE491E0209350
:1003A000E900AC014F5F5F4FFC0134913093EB00EB
:1003B000332391F0FA0144914093EC003196E4919B
:1003C0000396E093ED002F5F253049F78EE180938F
:1003D000EA001092EA00A5CFCA01F5CFC83061F457
:1003E000D03809F03DC0EBDE809100018093F10030
:1003F0008EEF8093E80095CFC11111C0E0DED238B6
:1004000049F40093E900C091EB00C5FBCC27C0F98B
:100410001092E900C093F1001092F100E9CF8C2F07
:100420008D7F8130E9F4D230D9F4EF2809F096CFEE
:100430000F778FEF800F843008F090CF8EEF80938E
:10044000E8000093E900C33009F488CF89E1809384
:10045000EB0081E090E001C0880F0A95EAF7B7CF82
:10046000012B09F07BCFD13209F078CFC93009F0E8
:1004700075CF8091E80082FFFCCF5091F100409150
:10048000F1003091F1002091F1009091F100809104
:10049000F1005237D9F44536C9F43236B9F42F3663
:1004A000A9F49F3699F4843789F415B818B81BB8A5
:1004B0008FEF84B987B98AB9F8E0FA95F1F70000AF
:1004C00014B817B81AB885B988B98BB98BEF80936F
:0A04D000E80075DE8DCFF894FFCF31
:00000001FF
