:100000000000022099010000DD230200A923020064
:10001000A9230200A9230200A9230200A9230200A8
:10002000A9230200A9230200A9230200DD23020064
:10003000DD230200A9230200A11802009923020077
:10004000DD230200DD230200DD230200DD230200A8
:10005000DD230200DD230200DD230200DD23020098
:10006000DD230200DD230200DD230200DD23020088
:10007000DD230200DD230200DD230200DD23020078
:10008000DD230200DD230200DD230200DD23020068
:10009000DD230200DD230200DD230200DD23020058
:1000A000DD230200DD230200DD230200DD23020048
:1000B000DD230200DD230200DD230200410B0200EC
:1000C000DD230200470B0200DD2302004D0B02007E
:1000D000DD230200530B0200DD230200DD230200BA
:1000E000DD230200DD2302002D02020033020200A4
:1000F00039020200DD230200DD230200DD230200BD
:10010000DD230200DD230200DD230200DD230200E7
:10011000DD23020099280200DD230200DD23020016
:10012000DD230200DD230200DD230200DD230200C7
:10013000DD230200DD230200DD230200DD230200B7
:10014000DD230200DD230200590B0200DD23020043
:100150005F0B0200DD230200DD230200DD2302002D
:10016000DD230200DD230200DD230200DD23020087
:10017000DD230200DD230200DD230200DD23020077
:10018000DD230200A9160200DD230200DD230200A8
:10019000DD230200DD230200584B4CF2205210B543
:1001A0001A804DF628121A8000BF00BF22F01AF9FB
:1001B000534B4FF030621A60524A9A60524ADA60EA
:1001C000524B4FF470021A60514A136813F4807353
:1001D00001BF50490B604FF4A85313604E4B4F4979
:1001E0001A78100742BF1A7842F008021A704C4B76
:1001F0002A221A704B4A4C4B8B4204D252F8040FFD
:1002000043F8040BF8E7494B494A0021934202D2D4
:1002100043F8041BFAE7474A4748002350F82310E5
:1002200042F823100133662BF8D1444B444A802115
:1002300003F8011B9342FBD1424B3E4A1A60424BEA
:100240008A221A70A3F5805324225A70A0221A70B1
:100250009A799107FCD59A79D206FCD43B4A9379D6
:1002600003F00C03082B394BF9D103221A714622F3
:100270005A719A799406FCD534498A79334B5006E1
:10028000FBD5334A4FF08271116009215160202261
:100290001A709A7902F00C020C2AFAD12D4B2E4AD0
:1002A0001A602E4B2E4A1A6000225A60072243F829
:1002B000042C2C4AC3F80C2D62B622F01DF9154B04
:1002C0001B68DA0705D5284822F094F8274B284AFE
:1002D0001A60284B1B785B0609D5244C244B2268F6
:1002E0009A4204D1204822F085F8002323601EF0B2
:1002F00053FD22F07DF81EF0A9FCFEE70E2005401C
:1003000030800440823F04000100002B88ED00E0B3
:1003100010D0034014D0034002D00740E40BFF1F6D
:1003200000E0074068D30300F806FF1FE40BFF1F3F
:10033000D412FF1F0002FF1F0000000000E400E0D5
:1003400056E400E008ED00E00050064000400640A2
:100350004480044004800440C010050014E000E024
:10036000BFD4010000002020642127591CE0034075
:10037000A5C3945A00F00740FFFFFFFFFFFFFFFFF8
:10038000FFFFFFFFFFFFFFFFFFFFFFFFFFFFFFFF7D
:10039000FFFFFFFFFFFFFFFFFFFFFFFFFFFFFFFF6D
:1003A000FFFFFFFFFFFFFFFFFFFFFFFFFFFFFFFF5D
:1003B000FFFFFFFFFFFFFFFFFFFFFFFFFFFFFFFF4D
:1003C000FFFFFFFFFFFFFFFFFFFFFFFFFFFFFFFF3D
:1003D000FFFFFFFFFFFFFFFFFFFFFFFFFFFFFFFF2D
:1003E000FFFFFFFFFFFFFFFFFFFFFFFFFFFFFFFF1D
:1003F000FFFFFFFFFFFFFFFFFFFFFFFFFFFFFFFF0D
:10040000FFFFFFFFFFFFFFFFFFFFFFFFDEF9FFFF23
:10041000C460056146618761C0F81C80C0F8209007
:10042000C0F824A0C0F828B0C0F82CD0C0F808E06C
:1004300000F002B80020FFFF024B9A68026098604B
:10044000002070474010FF1F024B9A6812689A60A4
:10045000704700BF4010FF1F0E4B9C6806461D46AC
:100460000CB91EF0D7FB23686660AB602046C468F9
:10047000056946698769D0F81C80D0F82090D0F8CB
:1004800024A0D0F828B0D0F82CD0D0F808E0012073
:100490007047FEE74010FF1F10B50021044600F032
:1004A0003FFB28B920461CB1BDE810400EF02EBC21
:1004B00010BD002100F034BB10B50121044600F04E
:1004C0002FFB28B920461CB1BDE810400EF01EBC21
:1004D00010BD10B50446FFF7DFFF28B920461CB158
:1004E000BDE810400EF012BC10BD10B501220C4644
:1004F00000F092FC28B920461CB1BDE810400EF077
:1005000005BC10BD00F088BC00F0E6BB3548D0F853
:1005100000322DE9F0474FF0030E00F580760446D7
:1005200000F50077B34246D91D1FD0F8E8C053F854
:10053000041CC0F80052002201328B184FEA9308C5
:1005400003F003031CF808805B0048FA03F303F090
:100550000303022BF0D0D0F8F43012014FEA920CD2
:1005600003EB0113002A3AD0043B53F8042F110780
:100570001AD1D0F8F4108A4216D3D4F8F850AA420F
:1005800012D2521A48BF0F3212114FEA9209D0F814
:10059000E8A002F003011AF80980490048FA01F5C1
:1005A00005F00305012D08D0BCF1010CDDD1D0F818
:1005B0000032B342B8D8BDE8F0870EFA01F141EA43
:1005C00008080AF80980D4F80012B94201F10408B9
:1005D00036BFC4F80082C4F8FC500A60E4E72B463A
:1005E000A0E700BF4010FF1FF8B5030704D12D4E50
:1005F000D6F8F430984202D2002845D1F8BDD6F89A
:10060000F8209042F8D2C31A48BF0F331B119C0840
:10061000D6F8E820234F125D03F0030149000A4198
:1006200002F00302012A184635D1D908D7F8F0E0C4
:1006300003F0070C1EF8015002FA0CF225EA020240
:100640000EF80120D7F81022D6F8E850944238BFAF
:10065000C7F810422A5D03279C0803F003035B00E0
:1006600007FA03F322EA03022A550130D6F8E850CC
:10067000840800F003032A5D590042FA01F101F0F9
:1006800003010229EBD0F8BD0748084A084B40F2A5
:1006900035211EF0CBFA0448044A054B40F23121C3
:1006A0001EF0C4FA4010FF1F5CCB0200A8CC020071
:1006B00068CB020021F00F01F8B50A1A1B4D1C4C43
:1006C000D200A5FB0252520A950007358718ED08A3
:1006D000A1EB821607EB050E7645C4F8F070C4F85E
:1006E000EC20C4F8E800C4F8F810C4F8F46017D39C
:1006F000002122F003FE2A460021D4F8F00022F067
:10070000FDFD002301214FF0FF32C4F81032A4F8A0
:100710000432C4F80832A4F80612C4F80C22F8BD5A
:100720000448054A054B87211EF080FAF32C23FA72
:100730004010FF1F5CCB020054CB020074CB0200C0
:10074000034AB2F804320133A2F80432704700BF02
:100750004010FF1F034AB2F80432013BA2F80432F2
:10076000704700BF4010FF1F034BB3F80402003076
:1007700018BF0120704700BF4010FF1F2DE9F8434C
:10078000264CB4F80432002204F580710133A4F839
:100790000432C4F80012C4F80822C4F8FC20A4F102
:1007A000040904F1D005264604F50078032759F81A
:1007B000043F1A0719D1D4F8F420934215D3D6F880
:1007C000F8108B4211D29B1A48BF0F331B119808A7
:1007D000D4F8E8E003F003021EF800C052004CFA1F
:1007E00002F101F00301012905D0FFF78FFEA945B1
:1007F000DDD1BDE8F88307FA02F242EA0C020EF8F6
:100800000020D6F80022424502F1040036BFC6F8A7
:100810000002C6F8FC101360E7E700BF4010FF1F9E
:10082000002942D02DE9F047204E0D46A0F10409E1
:10083000374606F50078002459F8043F1A0719D105
:10084000D6F8F4108B4215D3D7F8F820934211D282
:100850005B1A48BF0F331B119808D6F8E8E003F085
:1008600003021EF800C052004CFA02F101F003012D
:10087000012906D00134FFF749FEAC42DCD1BDE8C6
:10088000F0874FF0030A0AFA02F242EA0C020EF86D
:100890000020D6F80022424502F1040036BFC6F817
:1008A0000002C6F8FC101360E4E770474010FF1F19
:1008B0002DE9F04F544ED6F8EC00D6F8FC3083B05A
:1008C000800006F5807537463BB30024C6F8005219
:1008D000C6F8FC4018B944E00134844219D2A30898
:1008E000D6F8E81004F00302CB5C5200134103F089
:1008F0000303032BF0D1D7F800321A1DC7F80022EA
:100900001C60FFF703FED7F8EC000134800084423E
:10091000E5D3D6F8FC30002BD7D110B39C46DFF8D6
:10092000E8901D464FF0030A06E0032B60D0012B30
:1009300022D00135854214D2AF08D6F8E82005F060
:100940000304D15D640041FA04F303F00303022BB6
:1009500002EB070EE9D1BCF1000F3DD10135854214
:10096000EAD3B6F804320022013BA6F80432C6F8F6
:10097000102203B0BDE8F08F4FEAD50BD9F8F02074
:1009800012F80BC005F007084CFA08F0C3075A44E8
:1009900022D52901D9F8F4004358084483B16A46A6
:1009A0004FF4A6710DF0D8FA009A22B100206A46E1
:1009B00001460DF063FAD6F8F02012F80BC05A4445
:1009C000012303FA08F32CEA030C82F800C0D6F8DE
:1009D000E830D95D03EB070E0AFA04F321EA0301BC
:1009E0008EF80010D6F8EC004FF0010C8000A0E764
:1009F0000223A34021EA0301D155D9F8EC004FF0BE
:100A0000000C800095E700BF4010FF1F434BD3F858
:100A1000F410D3F8F8202DE9F04F521A0025D3F83E
:100A2000E890D3F8EC30856080E82400C56005616B
:100A30004561856199F800B04FEA83082E46AC46BF
:100A4000AA46AE4629462A462F467F004BFA07FBA8
:100A50000BF00303012B31D03FD3022B02D101361F
:100A6000466001310132C2EB0804B4FA84F464092F
:100A700064B9930802F0030719F803B07B004BFA3E
:100A800003F313F0030301D0012BDED101292CD095
:100A900002292ED0A94284BF81610D4694B9012B51
:100AA0004FEA920329D019F803B002F003077F0040
:100AB0004BFA07FB0BF00303012BCDD10136466047
:100AC0001946CFE7D64501D9C0F80CE036014FEA08
:100AD0000C1346608360BDE8F08F0CF1010CC0F888
:100AE00008C00EF1010E0021BCE70769013707615C
:100AF000D0E7476901374761CCE7D64505D8A64618
:100B000019F803B002F003079FE7C0F80CE0F246C3
:100B100019F803B0A64602F0030796E74010FF1F3E
:100B20000F302DE9F84F060957D06A4FB7F8043255
:100B3000002B52D1B7F806420D46002C50D1D7F801
:100B40001022D7F8ECE0724538BF4FF0010C44D2C8
:100B5000D7F8E80081181AE00134A64252D913F000
:100B60000C0F1ED10134A64240F2A88013F0300FC2
:100B70001CD10134A64240F2A48013F0C00F1AD158
:100B80000134A64240F2A0800132724518D211F819
:100B9000013B13F0030FDFD013F00C0F4FF00004F4
:100BA000E0D013F0300F4FF00004E2D013F0C00F8C
:100BB0004FF00004E4D0013272454FF00004E6D358
:100BC000BCF1000F09D120F0F3FDD7F81022D7F8BF
:100BD000ECE072454FF0010CBAD30020BDE8F88F6D
:100BE000D7F80822D7F80C329A4270D2D7F81022E0
:100BF000D7F8ECE0724528BF0024E4D24FF0000C97
:100C00006446A5E79300012CA3EB040103F1010C5A
:100C100001F1010804BF4FEA9C02C7F810224FEA15
:100C2000980208F003094FEA490910F802E001248C
:100C300004FA09F4023144EA0E048B42845428BFBA
:100C40004FF0020910D34FEA910ED7F8E82001F0D7
:100C5000030412F80E00640009FA04F40131204381
:100C60008B4202F80E00EED2D7F8F4B0D7F8083273
:100C7000DFF860904FEA081AC8EB0C020BEB0A048D
:100C80001E44120120460021C7F8086222F036FBFC
:100C900015B92046BDE8F88F0023D9F8F0504BF87D
:100CA0000A304FEAD80101236A5C08F0070803FA0A
:100CB00008F313436B542046BDE8F88F9200531C91
:100CC000A1E79200931C9EE79200D31C9BE720F0C3
:100CD0006FFD8BE74010FF1FF8B5304CB4F80432BD
:100CE0001BB9030702D0002849D1F8BDD4F8F4306D
:100CF0009842F8D3D4F8F8209042F4D2C31A48BFEF
:100D00000F331B119E08D4F8E820244F925D03F0A6
:100D1000030149000A4102F00302012A194635D1B4
:100D2000D808D7F8F0E003F0070C1EF8005002FADC
:100D30000CF225EA02020EF80020D7F81022D4F8AF
:100D4000E850964238BFC7F81062AA5D03279E0894
:100D500003F003035B0007FA03F322EA0302AA5538
:100D60000131D4F8E8508E0801F00303AA5D580061
:100D700042FA00F000F003000228EBD0F8BD08486A
:100D8000084A094B40F235211DF050FF0448054A3E
:100D9000054B40F231211DF049FF00BF4010FF1FFD
:100DA0005CCB0200A8CC020068CB020010F00F035D
:100DB0001DD1184AD2F8F410884219D310B4D2F8D1
:100DC000F840A0420FD2401A48BF0F300111D2F8AC
:100DD000E8408A0801F00300A25C4000024102F0F2
:100DE0000302012A06D018465DF8044B7047002321
:100DF00018467047002001300B189A0803F00303CF
:100E0000A25C5B0042FA03F303F00303022BF2D06F
:100E10000301E8E74010FF1F2DE9F04704460028D2
:100E200000F0D080002967D0030769D1DFF8BCE16A
:100E3000DEF8F400844263D3DEF8F8309C425FD2DF
:100E4000201A48BF0F304FEA20184FEA9803DEF807
:100E5000E8706648FE5C08F003035B001E4106F084
:100E60000306012E4CD1B0F80452002D48D1D0F821
:100E7000EC3008F101004FEA830901F10F0C8145C4
:100E80004FEA1C1C10D9830800F0030AFB5C4FEAF0
:100E90004A0A43FA0AF303F00303022B33D01BB9C7
:100EA0000135AB199C452FD8B44522D0664534D9BD
:100EB000B6EB0C0608EB0C0013D0064403464FF0CB
:100EC000030C01E0DEF8E8709D0803F003017A5D91
:100ED00049000CFA01F1013322EA0102B3427A55CA
:100EE000F0D1DEF81032414A8008984201D2C2F8AF
:100EF00010022046BDE8F0873C4BB3F804423CB1F9
:100F00000020BDE8F087013601308145BBD8CBE732
:100F1000FFF76AFB2046BDE8F0873544AC4533D87F
:100F200006EB080508EB0C00854222D2A90805F063
:100F300003037A5C5B0042FA03F818F0030F3944AC
:100F400008BF02270ED049E0A908DEF8E88005F0C6
:100F5000030318F801205B0042FA03F919F0030FAC
:100F600041443BD107FA03F30135134385420B702B
:100F7000EAD3C6EB0C02120104EB0610002122F0AA
:100F8000BDF92046BDE8F087DEF8F070174D4FEA56
:100F9000D80308F00700FB5C034103F00103002ABB
:100FA000AED008461946FFF7BBFD07460028A7D07C
:100FB0003201214622F05FF9B5F8043243B13846D8
:100FC000BDE8F08708462146BDE8F047FFF7A8BD19
:100FD0002046FFF709FB3846BDE8F0870448054A7C
:100FE000054B40F2CB211DF021FE00BF4010FF1F3A
:100FF0005CCB0200B0CC0200D8CB020010B58AB0A6
:1010000003A80B4CFFF702FD0599039A049B00917E
:101010002046084900F0B8FF099806990090019110
:10102000079A089B0449204600F0AEFF0AB010BDA5
:1010300098FA0200F4CB020018CC02002DE9F0412E
:10104000544F55495548D7F8F42000F09DFFD7F884
:10105000EC10890018BF00251ED180E005F00306C2
:1010600076004FEA9508D7F8E8304A4A13F8083076
:10107000334103F00303022B6FD0032B6BD0012B02
:1010800044D02E224649454800F07EFFD7F8EC10A8
:1010900001358900A94262D9A806DFD18D426CD200
:1010A000D7F8E8004FEA950805F0030610F8083075
:1010B000760033419A0721D12C4604E0825C42FA43
:1010C00003F39B0708D1013404F003038C424FEA79
:1010D00094024FEA4303F1D3621B7F2A0ED992098F
:1010E0002E48304900F050FFD7F8EC3024F03F058F
:1010F000B5EB830F33D24FEA950800262A4A2B49D5
:1011000026482B011A4000F03FFFACE7D2F8F4105C
:10111000274A2B01CB58934229D0264A934228D004
:10112000254A93422FD0254A93421ED0244A934207
:101130001BD0244A93421ED0234A93421BD0234AF9
:10114000934222D0224A934221D0224A93420CBF9A
:101150004D22682296E76D2294E73D2292E70F48E0
:101160001D49BDE8F04100F073BB53228AE75422C9
:1011700088E74C2286E7412284E705F003067600E3
:101180004FEA9508BAE744227CE746227AE74222F2
:1011900078E700BF4010FF1F60CC020098FA020001
:1011A000A4CC020080CC0200F0FF0F009CCC020017
:1011B0009C670300B4540300484103009864030093
:1011C00048640300583E03000C3E0300C84C030073
:1011D000184E0300485603007CCC0200074B5B69A5
:1011E0004BB15A68904204D3801A043053F820005F
:1011F00070471B68F4E71846704700BF4010FF1F98
:1012000070B5144C636906469868DB68834216D350
:101210000230C000FFF74DF9054620B963699868B0
:1012200040000DF073FD63692B60D9685A689B68B4
:101230005B00AB600A4400236A60EB606561636930
:10124000DA68501C0432D86043F822605B68013BC6
:10125000184470BD4010FF1F014441F205538842FD
:1012600005D210F8012B03EB43135340F7E798B274
:10127000002808BF01207047034B044A5A6100222E
:10128000C3F8D420704700BF4010FF1F24CD0200D8
:101290002DE9F84F81468846FFF7DEFF154B5C6964
:1012A000834624B3E56804F1100A043504EB850590
:1012B0005646AE42374618D256F8040B42780378A9
:1012C00043EA02235B45F4D183784345F1D10330EF
:1012D0004946424622F034F80028EAD16368CAEB56
:1012E000070003EBA000BDE8F88F2468D9E720468B
:1012F000BDE8F88F4010FF1FFF292DE9F047804619
:101300000E4605D93448354A354BBC211DF08EFCBC
:10131000FFF7BEFF024600285BD1324CD4F8D40060
:10132000351DD0B1D4F8DC30D4F8D8102B448B4222
:1013300013D92944FFF7E6F8074648B9D4F8D40092
:10134000D4F8DC103A46FFF7DDF8C4F8D47004E0B6
:10135000D4F8D8302B44C4F8D830D4F8D430CBB932
:101360007F2D8CBF2F4680273846FFF7A2F8C4F8A0
:10137000D40050B92846FFF79CF81A4BC3F8D400A4
:1013800010B928460DF0C2FC2F460023C4F8D870CF
:10139000C4F8DC30D4F8DC90D4F8D4A031464D4405
:1013A0004046C4F8DC50FFF757FF0AEB09070AF87C
:1013B0000900000A7870BE70F81C414632463E446F
:1013C00021F059FF0023F3703846BDE8F047FFF7DE
:1013D00017BFBDE8F08700BFFCD9020032FA020057
:1013E00009DA02004010FF1F10B5044621F0BAFFD1
:1013F00001462046BDE81040FFF77EBFFF2838B504
:1014000004460D4605D90748074A084BF7211DF049
:101410000DFC0430FFF740F8286084702868033022
:1014200038BD00BFFCD9020041FA020009DA02000F
:10143000F8B58578C71C044629463846FFF728FFCB
:10144000064668B938462946FFF706FF254420704E
:10145000000A6070EE702046BDE8F840FFF7D0BE8D
:101460002046FFF751F83046F8BD08B5FFF7B6FE45
:101470004278007840EA022008BD08B5FFF7AEFECA
:10148000807808BD08B5FFF7A9FE033008BD10B588
:101490000C46FFF7A3FE83782360033010BDFFFFE7
:1014A0002DE9F0411D46002303600B6013602B60A3
:1014B000174B5C690746884616461CB3154B9C4281
:1014C00020D03B6801333B60D8F80020E368134428
:1014D000C8F80030E368043304F1100204EB83031E
:1014E0009A4207D23168081D52F8041B89780144DA
:1014F0003160F5E72046FFF759FC2B682468184453
:101500002860DAE72A68336813442B60BDE8F0816D
:101510004010FF1F24CD02000C4B70B55C69A4B1D4
:101520000B4B9C4211D0E368043304F1100604EB2A
:101530008305AE4207D256F8042B0649064803320B
:1015400000F022FDF5E72468E9E770BD4010FF1FB9
:1015500024CD020036DA020098FA020038B5446859
:1015600003682144994205460DD9037BDB070CD45F
:1015700001F1100424F00704083480682146FEF7C6
:10158000B4FF2C60A860012038BD002038BD70B5C4
:101590000E46114605461446FFF7E0FF38B92B7B8F
:1015A000DB070ED595E818009C420AD21C1B6B681D
:1015B000A86822461844314621F089FE6B681C4415
:1015C0006C6070BD70B50C46012105464668FFF79A
:1015D000C5FF70B1B44228BF3446A968601C0844F6
:1015E000321B214421F073FE6B68A86801336B60E5
:1015F000204470BD38B504460025002914BF0846B4
:10160000012020606560FEF747FF237BA06065F343
:101610000003237338BD38B505460C460131FFF78A
:10162000E9FF6C6038BD00234360037B016043F039
:10163000010382600373704738B514460546FFF70F
:10164000D9FF024B2560636038BD00BF8F150000D5
:10165000037BDB0710B5044602D48068FEF754FF15
:101660000023A36010BD38B505461020FEF714FF17
:1016700029460446FFF7BEFF204638BD10B5044694
:1016800050B1037BDB0702D48068FEF73DFF2046A4
:10169000BDE81040FEF738BF10BD38B5037BDB074F
:1016A00004460D460AD4016880682944FEF71DFFF0
:1016B0002368A0601D442560184438BD002038BD53
:1016C00038B504460D46FFF749FF20B16368A068AE
:1016D0001D446560184438BD90E80C009A4210B56E
:1016E000044605D0A26863680021D154A06810BDEB
:1016F0000121FFF7D2FF0028F4D110BD10B50C4630
:101700000121FFF7DDFF00B1047010BD7F2910B586
:101710000C4606D80121FFF7D3FF002849D00470FA
:1017200010BDB1F5006F0ED20221FFF7C9FF0028EE
:101730003FD0A30904F03F0463F03F0364F07F044B
:101740000370447010BDB1F5803F12D20321FFF742
:10175000B7FF70B3230B63F01F030370C4F385134B
:1017600004F03F0463F07F0364F07F0443708470EF
:1017700010BDB1F5881F05D30E480F4A0F4BB0219D
:101780001DF054FA0421FFF79BFF90B1A30C63F006
:101790000F030370C4F3053363F07F034370C4F396
:1017A000851304F03F0463F07F0364F07F048370CB
:1017B000C47010BD60FA020052FA02006DFA020015
:1017C00038B5054608460C4621F0CCFD21460246B8
:1017D0002846BDE83840FFF7DABE10B51446FFF7DB
:1017E000F1FE00B1047010BD10B51446FFF7EAFE1B
:1017F00000B1047010BD436899428CBF00235B1A8E
:101800004360704770B515464268914204460ED257
:101810004B19934201D3416070BD8668521A70180B
:10182000521BF11821F053FD6268521B626070BDBB
:1018300007B5044B00906846019300F059FA03B0D5
:101840005DF804FB8F150000084611461EF03AB8FB
:1018500070B5064608460D4621F084FD044620B1C9
:1018600096E80900294622469847204670BDFFFFAA
:101870002DE9F74F0D9C9146A41A9DF8302012F0E7
:10188000DF0F06468A4609D0302A0CAA264F0EBF23
:101890004FF0100817464FF0010802E0234F4FF0B9
:1018A000100813F0800205D0022394FBF3F3E51A2D
:1018B0001C4602E013F0010515D1002C16DDA346ED
:1018C000C345DC46A8BFC446624696E809003946CF
:1018D000CDF804C09847DDF804C0CCEB0B0BBBF18E
:1018E000000FEDDC03E02546144600E00024B9F1CA
:1018F000000F05D096E8090051464A4698474C44E7
:10190000002D0DDD2C444545A946A8BFC14696E8EB
:10191000090039464A46C9EB05059847002DF2DC17
:10192000204603B0BDE8F08F1CFB02002DFB020037
:101930002DE9F04389B08046119E10989DF848909B
:10194000139F0AB900220DE0002904DA2D228DF838
:101950000F2049420EE0B40701D52B2202E07207A6
:10196000F0D520228DF80F2021B908AC302304F8DF
:10197000013D12E008ACB1FBF3F503FB1512092A97
:10198000C6BFA0F10A0E7244303204F8012D04AA39
:101990009442294601D9002DEDD116F040039DF85F
:1019A0000F500DD0ADB10122CDF80090019240460C
:1019B0000DF10F013346FFF75BFF013F054608E0DD
:1019C0003DB104AA944284BF04F8015C04F1FF34E1
:1019D0001D4608AB1A1BCDF80090019740462146E2
:1019E0003346FFF745FF284409B0BDE8F083FFFF09
:1019F0002DE9F04F91B0914622F008029B46022A51
:101A00009DF86C301A9E059382460C461C9FDDF8AB
:101A100074800BD0B9F1080F08D0B9F1100F05D0C0
:101A20008548864A864BD0211DF000F9E2070BD489
:101A3000A30703D12168834A914205D020460DF0C7
:101A40001DFE400040F0010416F0810206D1059B06
:101A5000302B03D14745B8BF47469046204610F08B
:101A600055FF002808A90BDDB50701D52B2202E0A0
:101A7000720705D520228DF820200DF1210500E008
:101A80000D46F30621D5B9F1020F06D12A463020C2
:101A900002F8020B0BF1010015E0B9F1080F09D1B2
:101AA00030222A70B20545BF0BF10E026A70013573
:101AB00002350AE0B9F1100F07D12A46302002F8AA
:101AC000020B0BF1170068701546002216F0200F6C
:101AD0000CBF10462C20B8F1010F0CABC8BF46F06C
:101AE0004006099316F0400F4FF010032A700A9336
:101AF000A5EB01050B928DF81F20CDF800905FFA41
:101B00008BF315D00022019202930390234609A87B
:101B10000AA90BAA10F09EFD03782D2B834615D140
:101B20008DF81F300B9B013B00F1010B0B930DE077
:101B30000191029303900AA909A80BAA234610F069
:101B400089FDB8F1010F83466DDC02E0B8F1010FA9
:101B500040DC4FF000094C46730619D59DF81F3044
:101B600053B1002301220093019250460DF11F0151
:101B7000FFF77EFE013F044455B10023012201928C
:101B80000093504608A92A46FFF772FE7F1B0444C3
:101B9000059B0B9AB8F1010FC8BF47468DE8880036
:101BA000504659463346FFF763FE0444B9F1000F2F
:101BB00009D0202300228DE808025046224913460E
:101BC000FFF756FE044409980CAB984230D0FEF75C
:101BD0009BFC2DE00B9C9DF81F304445B8BF44464C
:101BE00003B101342C44BC420ADA06F00103002B95
:101BF000A7EB040416BFA1464FF00009002402E041
:101C00004FF000094C4626F001064CB1202300227B
:101C10008DE8180050460C491346FFF729FE04468C
:101C20003023059398E70B9C4445B8BF4446DAE758
:101C3000204611B0BDE8F08FA0FA020085FA02003C
:101C4000B0FA02002C530300D8B703002DE9F0438B
:101C50008BB012F0020F07460C4691469846129E32
:101C600005D112F0040F0CBF0023202300E02B232A
:101C7000009302A820212246139B0BF05BF919F474
:101C8000807F20EAE0750DD06B1C1F2B0ADC0AAAAE
:101C90001544252205F8202C0AAA1A44002102F82E
:101CA000201C1D4619F0400412D09DF808302F2B3F
:101CB0004FF000030ED8012202A90093019238468A
:101CC000FFF7D6FD013E0446013D0DF1090103E099
:101CD00002A901E002A91C46CDF800800196384611
:101CE0002A464B46FFF7C4FD20440BB0BDE8F08305
:101CF0002DE9F04F804689B0914600240B461D46E1
:101D000013F8012B4AB98D420AD96E1A98E80900D6
:101D1000324698473444294602E0252AEFD1F2E7BB
:101D20000B78002B00F01F8101314FF0200B0027B2
:101D30000A4611F8013BABB12D2B02D147F0010748
:101D4000F6E72B2B02D147F00207F1E7202B02D157
:101D500047F00407ECE7212B02D147F00807E7E73B
:101D6000302B02D04FF0000A03E047F040079B46BB
:101D7000DEE7134612F8011BA1F13000092805D84F
:101D80000A2303FB0A1AAAF1300AF2E72E291E469B
:101D90001CD15A782A2A02D00133002207E0D9F850
:101DA0000020023609F1040522EAE27211E01878F7
:101DB000A0F1300109291E4603F1010304D80A21CC
:101DC00001FB0202303AF2E74D4602E04D464FF089
:101DD000FF3233786C2B08BF01363378002B00F0CC
:101DE000C280642B7AD013D8502B00F0838005D8A2
:101DF000A3F14501022940F28B80A2E0622B17D0AB
:101E000029D8582B40F09D8005F10409412374E046
:101E1000712B2DD004D8672B7AD9702B6AD090E023
:101E2000752B50D0782B65D0732B40F08A8031E031
:101E30002B68CDF800B005F10409CDF804A04046A8
:101E400013B14B49042201E04A4905223B46FFF702
:101E50000FFD044485E008A92B6801F8043D05F155
:101E60000409CDF800B0CDF804A040460122EDE70A
:101E700007A928680492FFF70AFB049ACDF800B07E
:101E80000146501C05F1040908BF079ACDF804A0CB
:101E90004046DBE705F104092D6865B1531C03D109
:101EA000284621F05FFA0246CDF800B0CDF804A034
:101EB00040462946CAE7CDF800B0CDF804A0404618
:101EC0002D490622C2E761238DE88808CDF80CA0D1
:101ED00005F1040940462968002209E061238DE8E4
:101EE0008808CDF80CA0296805F1040940460122B4
:101EF0000A230AE005F1040961238DE88808CDF87A
:101F00000CA02968404600221023FFF711FDA0E72E
:101F1000073525F00705D5E90001059304922AF05D
:101F2000C9FD059B049A019200EE100A1946CDF8EE
:101F300000A040463A465B4605F10809FFF786FED9
:101F400087E7252B06D00D480D4A0E4B40F226217F
:101F50001CF06CFE98E809003146012298470134D4
:101F6000A946711CCAE6204609B0BDE8F08F00BF43
:101F7000E3FA0200E8FA0200EEFA0200A0FA020018
:101F80007AFA0200F5FA02000EB403B503AA52F879
:101F9000041B0192FFF7ACFE02B05DF804EB03B046
:101FA000704703781A0613D503F07F0340221A42C4
:101FB00003D023EA02035208F9E710F8012F02F0D8
:101FC000C001802904D102F03F0242EA8313F4E702
:101FD00018467047421C10460132037803F0C003D4
:101FE000802BF8D070470023814207D911F8012DCA
:101FF00002F0C002802A18BF0133F5E71846704787
:102000000144034600208B421A4608D2127802F09F
:10201000C002802A03F1010318BF0130F3E77047C3
:102020007F289DBF024B185CC0F340000020704722
:102030003EFB02007F289DBF024B185CC0F3C0002E
:10204000002070473EFB02007F289DBF024B185CBA
:10205000C0F38000002070473EFB02007F289DBF38
:10206000024B185CC0F38010002070473EFB02005A
:102070007F2809D8064B1B5C13F00C0F06D1A0F18A
:102080005F03584258417047002070470120704755
:102090003EFB02007F289DBF024B185CC0F300107E
:1020A000002070473EFB02007F289DBF024B185C5A
:1020B000C0F34010002070473EFB020010B50446FC
:1020C000FFF7E8FF10B104F1200010BD204610BD5D
:1020D00010B50446FFF7E8FF10B1A4F1200010BDD1
:1020E000204610BD3038092884BF20F02000073872
:1020F0007047F0B51C0994421AD2121B01EB44013F
:10210000154606466DB131F8024B012D84BF0F888C
:1021100044EA074403F00F07FC4026F8024B013D58
:10212000F0E700EB420030F8023C1BB9501EF0BD56
:102130000020F0BD1046F0BDF0B5059F0024D21B75
:102140002546BC420AD031F814E033F814607644D6
:10215000354420F814502D0C0134F2E764000619C0
:10216000023C2144374614463CB131F8023F1D443D
:1021700027F8025B013C2D0CF6E706EB42031DB18C
:10218000012126F812100233181A4010F0BDF0B5E4
:10219000059F0024D21B2546BC420AD031F81460AA
:1021A000354433F81460AD1B20F814502D1401345D
:1021B000F2E764000319023C214416461F463EB173
:1021C00031F8024F254427F8025B013E2D14F6E753
:1021D00003EB4202023A8242134603D31988023AC1
:1021E0000029F8D00233181A4010F0BD023981429C
:1021F0000B4603D31A880239002AF8D00233181A82
:10220000401070472DE9F0439E4608AB93E8280242
:10221000DDF81C80561E02398446741C22D031F829
:10222000027FC2EB0804344407F57F47B44207F14C
:10223000FF072F449DBFBEF8005005F57F44FF34D3
:102240004FF6FF744C4484EA070513FA85F32CF823
:10225000023B98BF0EF1020E4FEA14493D0C1B0CD5
:10226000013EDAE700EB420113B120F812300231EF
:10227000BDE8F043FFF7BABF10B5044638B1806837
:10228000FEF742F92046BDE81040FEF73DB910BD0B
:1022900038B505460C20FEF7FFF82A78037862F37C
:1022A00000036FF341030446037028682368C0F3FA
:1022B0009D0060F39F0323606B686360AB680BB99C
:1022C000A3600AE04000FEF7E7F8A0602A68A9686A
:1022D000C2F39D02520020F0CEFF204638BD10B55B
:1022E0004B0018441A4449B130F8023D32F8024D0F
:1022F0001B1B002B04DB06D10139F4E7084610BD97
:102300004FF0FF3010BD012010BDFFFF38B504466F
:10231000806801298CBF0D46022518B12368B5EBF2
:10232000930F11D923789B0706D50848084A094B13
:1023300040F2DA211CF07AFC6900FEF7D6F8236837
:10234000A06065F39F03236038BD00BFC9FB020096
:102350002DFC0200D5FB020038B505460C460221D3
:10236000FFF7D4FF2B78002CB5BF43F001036FF3C8
:1023700000032B702B704FF00003B4BF6142214665
:102380006B6039B16B68AA68581C686022F813103A
:10239000090CF6E738BD037803F0FE036FF3410341
:1023A000037003686FF39F0303600023436083603F
:1023B000704728B103789B0702D48068FEF7A4B861
:1023C000704738B505460C464968FFF79FFF2278ED
:1023D0002B78A868A16862F300032B7063686B60B8
:1023E0006268BDE83840520020F045BF034609B995
:1023F00059607047FFF7B0BF38B505460C46FFF788
:10240000CAFF28462146BDE83840FFF7EFBF30B588
:102410000578816005F0FE0545F002050570056848
:1024200062F39F050022056042601946BDE8304016
:10243000FFF7DCBF70B50421064614461D46FFF7C2
:1024400065FF9DF81020337852B1002C75F1000221
:1024500006DA43F001036242337065EB450304E0A2
:102460006FF30003337022462B460021716052EA5D
:1024700003010CD07168B0684C1C746020F8112006
:10248000110C41EA0341180C0A460346EFE770BD00
:102490002DE9F04110EE105A0378EA0F62F30003C1
:1024A0000370C5F30F4313F4FF43804604D10023A8
:1024B000C8F80430BDE8F081B3F5FF4FF7D0C5F39D
:1024C000C753A3F17F06002EF1DB04D10121BDE843
:1024D000F041FFF741BF162ED8BF0026C5F3160501
:1024E000A3F16F074FF01004D8BFC3F1960397FB19
:1024F000F4F7C8BF093645F40005D8BF344639465D
:10250000C9BF963BDD4006F00F0693FBF4F4FFF7DE
:10251000FDFEC8F804702CB1D8F808000021620054
:1025200020F0ECFE4EB1D8F8083005FA06F2C6F1FC
:10253000100623F81420F540013464007F00BC42EB
:1025400005D0D8F808301D532D0C0234F7E7BDE84C
:10255000F081FFFF2DE9F041069E242E04460D4632
:10256000984606D92748284A284B40F26D311CF07E
:102570005DFB8F18C2F35B010131FFF7C7FE2278C4
:10258000B8F1000F02D042F0010201E068F300024E
:102590000023227063602946B94208462ED2027891
:1025A000A2F13003092B01F101010CD9A2F1410381
:1025B000192B02D8A2F1370305E0A2F16103192B10
:1025C0001CD8A2F15703B34218D2A068D4F804E093
:1025D0008446724642B1BCF8008006FB08332CF8F2
:1025E000023B013A1B0CF5E700EB4E0213B120F859
:1025F0001E300232121A52106260CDE7401BBDE855
:10260000F08100BFC9FB02000CFC0200E3FB0200EA
:102610004068B0FA80F04009704738B544680CB99A
:102620004B68CBB10B78057803F0010305F001028C
:102630009B1A11D14B6880688A689C4204D306D8E3
:102640002146FFF74CFE03E04FF0FF3000E0012091
:10265000EB0702D5404238BD184638BD884210B558
:10266000044601D0FFF7ADFE23786FF3000323701B
:1026700010BD884210B5044601D0FFF7A2FE2378B2
:10268000C3F30002C2F1010262F30003237010BD24
:1026900088421FB5044601D0FFF793FE626842B935
:1026A00020460121FFF732FEA268012313806360F8
:1026B00021E02378D9070ED56FF30003A0682370BB
:1026C0000123ADF80E30009301460DF10E03FFF724
:1026D0005EFD606013E0511C2046FFF717FEA06806
:1026E00062680123ADF80E30009301460DF10E0330
:1026F000FFF722FD6060237843F00103237004B0EC
:1027000010BD2DE9F84F0F4649680646144601B141
:102710002AB930463946BDE8F84FFFF752BE02F1FC
:102720000F052D092944FFF7F1FD7968B368B868F2
:1027300005EB010814F00F0208F1004404F1FF3426
:1027400001F1004E6FF0010C4FEA44040EF1FF3E20
:102750000CFB01FC0CEB4E0E2344704408BF10220E
:1027600099464FF0000EC2F1100A59B130F811B07D
:102770004BEA0E0E2EFA0AFA29F802A94FEA0E4E7B
:102780000139F0E72EFA0AFE03EB0C0923F80CE0FE
:102790006B00C3F1020305F100429944013A484637
:1027A000520020F0ABFD02344C44B8F1000F05D0CC
:1027B00034F8023D13B908F1FF38F6E7C6F8048093
:1027C0003A78337862F300033370BDE8F88FF0B5E0
:1027D0000D46496885B00446164601B122B9204627
:1027E0002946FFF7EEFD44E0FFF790FDA9686A680F
:1027F000A0683346FFF77DFC60602978237861F399
:1028000000032370DB07024633D500236868ADF868
:102810000E30310983420DD08B420BD0AF6837F8B0
:1028200013702FB101238142ADF80E3004D313E0B1
:102830000133EFE781421CD2AB6806F00F0633F894
:102840001100012101FA06F3013B184218BFADF84F
:102850000E10BDF80E3063B10123A06812B90380D9
:10286000636006E0009301460DF10E03FFF764FC80
:10287000606005B0F0BD73B5154606460C46886825
:102880006B6849689268994204D306D8FFF727FD20
:10289000002802DA23462C461D462A782378534026
:1028A000DB070DD4616830460131FFF72FFD6B68FF
:1028B0000093B068A1686268AB68FFF73DFC0BE06D
:1028C00030466168FFF722FD6B680093B068A1682D
:1028D0006268AB68FFF75BFC70602278337862F364
:1028E0000003337002B070BDF7B5154606460C46BE
:1028F00088686B6849689268994204D308D8FFF7E2
:10290000EEFC002804DA234601272C461D4600E091
:1029100000272A7823785340DB070DD561683046BD
:102920000131FFF7F3FC6B680093B068A16862683F
:10293000AB68FFF701FC0BE030466168FFF7E6FC8F
:102940006B680093B068A1686268AB68FFF71FFC12
:102950007060227833781FB1C2F30002C2F1010225
:1029600062F30003337003B0F0BD2DE9F04F16465B
:102970004A6873689A420C463EBF34460B461E4670
:102980002378DA0785B0054621D4317811F00107A4
:102990001DD16168FFF7BAFCA868A468D6F808E002
:1029A00072683946914208D03EF8116034F811300F
:1029B000334020F811300131F4E700EB4101FFF71B
:1029C00015FC2B7868606FF300032B7065E061687D
:1029D00028460131FFF79AFC227831787368019319
:1029E00081EA020303F0010383F001035F42BFB2F7
:1029F00002F00102A868D4F804E0009301F001019C
:102A00000397A368D6F808805742BFB2C1F1000C03
:102A100002971FFA8CFC0EF1FF37A3F102098246E0
:102A20007B1C26D039F802BF029B8BEA030B019B6B
:102A30005A44CEEB030BBB44BB4598BFB8F800B07B
:102A4000039B94BF8CEA0B0BE346594401EA020B4B
:102A50008BEA030B009B13FA8BF32AF8023B4FEA35
:102A6000134398BF08F10208090C120C0093013FB0
:102A7000D6E7009B00EB4E011BB1012320F81E306E
:102A80000231FFF7B3FB686023783278C3F30003A9
:102A900013402A7863F300022A7005B0BDE8F08F76
:102AA0002DE9F84F17464A687B689A420D463EBFAB
:102AB0003D460B461F462B78DB07064632D43B7853
:102AC00013F001042ED16968FFF720FCD7F808C085
:102AD0006A687F68D6F808E0A968D01B2346BB4225
:102AE00008D03CF8134031F8132022432EF813206D
:102AF0000133F4E75B000EEB0302023B0B44144688
:102B0000014629B133F8025F24F8025B0139F8E786
:102B100002EB4002CEEB020233785210726061F396
:102B2000000350E0696830460131FFF7EFFB2B7876
:102B3000D7F808C0D7F804803F786968B068AD68F6
:102B400003F0010307F00107C3F10009C7F1000E0C
:102B50001FFA89F91FFA8EFE4C1E023D82460122A1
:102B6000B4F1FF3F1FD035F802BF8BEA090B5B447D
:102B7000C1EB080BA344A34596BFBCF800B0F346D5
:102B80008EEA0B0B5F4447EA030B6FEA0B0B12FA5A
:102B90008BF22AF8022B98BF0CF1020C3F0C1B0C95
:102BA000120C013CDCE700EB410132B10748084A56
:102BB000084B40F23D111CF039F8FFF717FB337852
:102BC000706043F001033370BDE8F88FC9FB020069
:102BD000BEFB0200EEFB0200F0B516464A687368C1
:102BE0009A4238BF0B460C463CBF34461E462378FB
:102BF00037785F4017F0010785B0054639D1616825
:102C0000FFF784FB2378716813F0010322D1626817
:102C1000A868A768B668521A8B4209D036F813E044
:102C200037F813408EEA040420F813400133F3E729
:102C30005B00C118023B3B4414460E462CB133F8EE
:102C4000027F26F8027B013CF8E701EB4201FFF727
:102C5000CDFA09E08DE8820002970397A868A16881
:102C60006268B368FFF7CEFA2B7868606FF30003F1
:102C70001DE061680131FFF749FB73680093012390
:102C800001932378A86803F0010383F00103029302
:102C9000337803F0010383F001030393B368A16861
:102CA0006268FFF7AFFA2B78686043F001032B707E
:102CB00005B0F0BD2DE9F04F4B6885B004460E46D7
:102CC00015460BB1536823B90023636005B0BDE816
:102CD000F08F814206D1FFF7DBFAB542074608D1F3
:102CE000054606E0824206D1FFF7D2FA05460746BE
:102CF00002E03E4600E000277368696820461944F8
:102D0000FFF704FB2268A068C2F39D020021520075
:102D100020F0F4FAB368D6F804E0D4F808A00293DF
:102D20006FF0010303FB0EF3D5F808806A68039384
:102D30000AEB4E010020039B01EB030C2AB3029B1C
:102D4000CDF804E0A3F102090023019878B1B8F8A6
:102D5000000039F802BF0BFB0033BCF800B001984B
:102D60005B4401382CF8023B01901B0CEDE7084650
:102D700001F1020C0BB10B806046CAEB0000401061
:102D8000013A08F102086146D5E760602978337896
:102D90004B4013F0010F237838460CBF62F3000359
:102DA00043F00103237005B0BDE8F04FFFF764BAAC
:102DB0004B6870B50646144613B11378DA0702D58E
:102DC0000023736070BD636823B90121BDE87040C2
:102DD000FFF7C2BA0846FFF75BFA05462046FFF741
:102DE00057FA012104463046FFF7B6FA636883B10B
:102DF000A3681B88DB0704D5304631462A46FFF717
:102E000059FFA068626801460123FFF772F960600C
:102E100038B92846FFF730FA2046BDE87040FFF782
:102E20002BBA284629462A46FFF744FFDEE7FFFF74
:102E30002DE9F04F9A4691B05B68039205460C4627
:102E400033B9AD48AD4AAE4B40F2D4511BF0EEFE63
:102E5000039B59680131FFF759FA039BA8685A6828
:102E600001325200002120F049FA00236B60039BDD
:102E7000596820460131FFF749FA20460399FFF7C8
:102E8000A0FADAF808300193DAF804300293AB685C
:102E90000493D4F80480029BA66898450DD30FD8FC
:102EA00030464146019AFFF71AFA002804D1049AE5
:102EB00060600123138001E002DA00236B60FBE015
:102EC000029B03F100400138019B33F810304FEAB8
:102ED000400B00211F048AB201F1010102D45B0002
:102EE0009BB2F7E74FEA48034FF0000E08F10101EB
:102EF00003F1020926F818E0B1446160B446CC45FC
:102F00000ED2BCF8008008FA02F747EA0E0E2CF841
:102F100002EBC2F1100E28FA0EF81FFA88FEEEE757
:102F2000019F37F8100090400590029801280AD9B7
:102F300038465844059F30F8020CC2F1100E20FAB2
:102F40000EF0074305970298091A6960049801F189
:102F50000041013900EB410108910BF102010A9196
:102F600033446168029809938142069176D933F817
:102F7000021CB3F800B041EA0B4B0599BBFBF1FB17
:102F80000A99C1EB030E0199CDF82CE002390791A3
:102F90000F46002188469E4525D237F8020F3EF89D
:102FA000029B904040EA18481FFA88F000FB0BF0A3
:102FB000484503D2C0EB090C8C450ED80144C9EB3F
:102FC0000109C9F100012EF8021C1FFA89F1003134
:102FD00018BF012101EB1941DDE7C1EB0C012EF80F
:102FE000021C0021D7E733F80209814209D3091AEC
:102FF0004842588088B2003018BF012000EB1141D0
:103000000BE0411A5980002107E0B3F802E0704458
:103010005880A1EB10410BF1FF3BB9B10020DDF866
:103020001C90DDF82CE08046099FBE45EDD239F8B2
:1030300002CF0CFA02FC4CEA1848BEF800C010FAA5
:1030400088F060442EF8020B000CEDE7089921F897
:1030500002B9089106990139616082E701F10043E4
:10306000013B06EB43030021B34216D3B3F800E063
:103070004EFA02F00843C2F110010EFA01FE23F8E5
:1030800002091FFA8EF1EFE703F10042013A0499B9
:1030900031F812206AB9013B6B606B68002BF3D1E9
:1030A00007E003F10042013A36F8122022B9013B51
:1030B00063606368002BF4D1039B9AF800201B78AF
:1030C0005340DB0714D52B7843F001032B70636862
:1030D00073B10DA84FF0FF31FFF78EF9284629464E
:1030E0000DAAFFF7C8FB204621465246FFF7C3FB57
:1030F00011B0BDE8F08F00BFC9FB02001DFC02004B
:10310000FAFB020010B581684268002301EB42021D
:10311000914204D232F8024D44EA0343F8E70278C0
:10312000D20748BF5B42184610BD30B5426884687C
:10313000002304EB4202944207D2B3F5004F0BD2B6
:1031400032F8025D45EA0343F5E70278D20748BF4B
:103150005B420B60012030BD002030BD2DE9F04303
:10316000904609B19D1800E01D468468426800261B
:10317000A4F1020E4FF00109374642B33EF8024F68
:10318000103744EA0646072F1FDD90F800C0B4B29E
:103190001CF0010F1FBFE44359FA84F4A4B24FEAB4
:1031A000142939B105F1FF3C9C4505F8014C08D1C3
:1031B000BDE8F08305F1010C2C7003EB0804A44575
:1031C00005D0083F360A6546DDE7013AD5E7BDE898
:1031D000F083FFFF826843689FED0C0A02EB430314
:1031E0009A420CD233F8021D9FED097A07EE901A2D
:1031F000F8EEE77AE0EE077AB0EE670AF0E70378D8
:10320000DB0748BFB1EE400A704700BF0000000076
:10321000000080472DE9F84F0B9C9DF828A08046C0
:10322000894616469B46002C4AD08B1E1E2B03D97E
:1032300000202070BDE8F88F47688FB93AB1561E5C
:10324000204616F8013F1BB100F8013BF9E7204684
:1032500030230370002300F8013F001BBDE8F88F06
:103260007F003846FDF718F9D8F808103A4620F0E4
:1032700002F82146844623460CEB0700851E0022F7
:1032800065450AD3B5F800E04EEA0242B2FBF9FE0A
:1032900025F802E909FB1E22F2E73032392A84BF01
:1032A000ABF13A0552191A705D1C6246824296468D
:1032B00009D2BEF800E00232BEF1000FF6D007E0FE
:1032C0002046BDE8F88FBAF1000F0FD0012203E0CD
:1032D000BAF1000F08D00022681A032802BF9D1C13
:1032E00083F801A029460AB92B46C5E76046FDF7D9
:1032F0000BF966B1304620F035F82B463044B04229
:103300001D4604D910F8012D03F8012BF7E798F8B2
:103310000030DB0742BF2D232B7001356B1E224688
:103320009A4206D21178187802F8010B03F80119B5
:10333000F6E700232B70281BBDE8F88F8368C2686E
:1033400093423DBF5A1C826018784FF0FF3070479F
:10335000036810B5044613B14068FDF7D5F8204660
:10336000BDE81040FDF7D0B8F8B5044610200E4671
:1033700015461F46FDF79DF850B1064B07603544D2
:1033800046608660C5606360034B2060A3600120D7
:10339000F8BD00BF3D3300005133000003690A2B24
:1033A00010B5044604D1C3690133C361012306E0AB
:1033B000092B036A04BF073323F007030133236299
:1033C00063692361A36963616068A368984723699F
:1033D000A0610D2B09D10A23236163690A2B04D153
:1033E0006061A36860689847A061A369013306D152
:1033F00063695A1C03D00A2B1CBF0A23A36110BDAA
:103400002DE9F84F002604460F4686642069421CC9
:1034100017D00A2804D12046FFF7C0FF0126F5E7A0
:10342000FEF7FEFDF8B92369232B08D12046FFF7EC
:10343000B5FF2369591CE9D00A2BF7D1E6E75C2BCD
:1034400005D0E369256AA363E56387B915E02046E3
:10345000FFF7A4FF23690A2B05D0E369A363236A5E
:10346000E3630423C4E12046FFF798FFCEE7012B76
:1034700003D1012D01D0062346E0636A002B03DA55
:10348000072284F840202CE005D0062284F8402052
:10349000013B636289E1002E39D0A36A002B36D14B
:1034A000226B606B052384F8403002F10043013B3E
:1034B000013D30F813309D4200F0778113D9E16A65
:1034C0008A4207D308314900FDF70FF8E36A6063C9
:1034D0000833E362236B626B591C216322F813509B
:1034E000636A0133D5E7236B03F10042013A30F8F8
:1034F0001220954205D2013B2363636A013B63625C
:10350000F1E700F05281022384F840304DE1206958
:10351000431C01D10023F7E7272800F0638222280B
:1035200000F06082752803D020F01003622B04D1D4
:103530006369272B10D0222B0ED0722802D1636929
:10354000622B03E0622826D16369722B23D1A36921
:10355000272B01D0222B1ED1752803D12046FFF73F
:103560001DFF3FE262280BD12046FFF717FF2369BA
:10357000722B40F046812046FFF710FF012641E103
:10358000722840F02F822046FFF708FF2369622B44
:10359000F1D0012627E2FEF74DFD216918B95F2918
:1035A00001D07F291FD9082304F1440584F8403055
:1035B0002846C9B2FEF7A2F82046FFF7EFFE2069C1
:1035C000411C00F0F280FEF735FD10B12846217C49
:1035D000F0E720695F28F9D07F28F7D8FEF734FD9F
:1035E0000028F3D1E1E00846FEF72EFD30B1216955
:1035F0002E290CD10A2384F840301BE023692E2B9E
:1036000052D16069FEF720FD0028F0D14CE009237B
:10361000302984F840300DD1656945F02005622DD0
:1036200006D06F2D04D0A5F178025542554102E035
:10363000012500E0002504F144063046FEF766F857
:103640002046FFF7ABFE2069431C00F0AE809DB919
:1036500020F02003452B0FD10A23652184F8403048
:103660003046FEF753F82046FFF798FE21692B29D4
:10367000E3D02D29E7D1E0E7FEF7DCFC18B12169A2
:103680002E2909D10CE02069FEF7DEFC0028F6D1D6
:1036900023692E2BF3D088E021F020034A2BCCD1D4
:1036A0000A2384F84030C8E721692E291FD104F18C
:1036B00044063046FEF72AF82046FFF76FFE2369DE
:1036C0002E2B40F09A8165692E2D40F09681304670
:1036D0002946FEF71BF829463046FEF717F8204624
:1036E000FFF75CFE2046FFF759FE0D230CE7B84DAF
:1036F00000262F7877B1B9420CD0652F05F1010370
:1037000004D0632F02D0452F01D1013E1D46013662
:103710000135EEE72046FFF741FE0FB90123F3E63E
:10372000013537462B78652B0DD16B7822699A428B
:1037300007F1010705D120460135FFF72FFE3E4670
:1037400001E00235EEE72B78452B0AD16B78226930
:103750009A4204D12046FFF721FE3E460FE00123A6
:103760000FE0632B0BD16B7822699A4207F10107B6
:1037700005D12046FFF712FE02353E46D2E7954BB3
:103780009B5D84F8403094F8403003F0FD02442AF9
:1037900001D0482B02D1A36A013305E0452A01D0AC
:1037A000492B02D1A36A013BA36294F84030082B55
:1037B00040F02781E06CA56C0023874A52F8232053
:1037C0000021A942164607D03778465CB74202F17D
:1037D000010211D10131F4E712786AB9232B40F0CC
:1037E0000E817E4BD3F8E030002B0CBF10230E234C
:1037F00084F84030BDE8F88F0133242BDDD1BDE8DB
:10380000F88F00260C2384F840304FF0010923691B
:103810002046222B14BF4FF0270A4FF0220AFFF751
:10382000BDFD236953450BD16369534508D120463B
:10383000FFF7B4FD2046FFF7B1FD4FF0030801E0AC
:103840004FF0010800252769781C00F0B680B8F118
:10385000010F02D10A2F00F0B080454580F0B28000
:10386000574506D104F1440051460135FDF74EFF9E
:103870009FE05C2F40F097802046FFF78FFD256981
:103880001EB104F1440039466BE0622D25D012D8F8
:103890004E2D4CD007D8222D6AD0272D68D00A2D66
:1038A00000F0868046E05C2D62D0612D00F0A380A0
:1038B000552D3FD11BE0742D11D007D86E2D10D09F
:1038C000722D12D0662D35D10C2551E0762D0AD0FF
:1038D0000DD3782D2ED1022716E0082548E00925C2
:1038E00046E00A2544E00B2542E00D2540E0B9F111
:1038F000000F05D004F144005C21FDF707FF37E01D
:10390000752D0CBF04270827002517F1FF372AD390
:103910002046FFF743FDD4F810B05846FEF79EFB53
:1039200090B35846FEF7DEFB2D010544EDE72C4829
:103930000BF01EFAA5F13003072B0FD81D46032705
:103940006369303B072B0ED8013F0CD02046FFF7B0
:1039500025FD2369303B03EBC505F1E704F1440085
:103960005C21FDF7D3FE6F1C22D0B5F5881F16D25F
:10397000B9F1000F05D104F144002946FDF7C6FE58
:1039800016E0FF2D07D90AE0012384F84030B9F191
:10399000000F2ED0054604F14400E9B206E00123F1
:1039A00084F8403004E004F14400F9B2FDF7A6FECB
:1039B00000252046FFF7F2FC45E745453CBF0323C1
:1039C00084F8403004F144002946FDF714FFECE68A
:1039D000F8FC02003AFC020068FC02004010FF1FE5
:1039E0003AFD020000260B2384F840304FF0000916
:1039F0000DE74D46BFE70725BAE74C2384E50E33B4
:103A0000F6E6BDE8F88F00BF10B5044670B1C36894
:103A10004068984704F14400FDF71AFE606BFCF71C
:103A200073FD2046BDE81040FCF76EBD10BD2DE9CA
:103A3000F04385B001AD85E80E00804654200E4667
:103A4000029FFCF736FD044618B93046039B9847A1
:103A50004AE0034695E8070043F8048B4FF000095D
:103A600083E807000A250123E36123622363C4F886
:103A70002490C4F82890E5621420FCF71AFD202158
:103A8000606304F14400FDF7B5FDD4F83480B8F16B
:103A9000000F04D12046FFF7B7FF404625E030462F
:103AA000A8F80090B84720613046B84760613046BA
:103AB000B8472269A061561C04D06369591C06D11D
:103AC0000D2A01D125610BE00A2A04D108E001305A
:103AD00006D10D2B01D1656102E00A2B18BFA5614B
:103AE00020460121FFF78CFC204605B0BDE8F0839D
:103AF00030B585B001AC05462046FFF735FC20B156
:103B0000284694E80E00FFF792FF05B030BD30B5AF
:103B100085B0054601AC204629461AF0FDFD38B9AE
:103B20002846FDF761FC94E80E00FFF780FF00E0F7
:103B3000002005B030BD0021FFF762BCF8B5846AF3
:103B400006460D46DCB194E80A002B448B4223D98B
:103B50000831002220462944FCF7D4FC024650B923
:103B6000616820460831FCF7CDFC63682360736A06
:103B70006360746203E023682B4423600CE0802DB3
:103B80002F4638BF802707F10800FCF785FC00238B
:103B9000076043600446B0626068054465600830B1
:103BA0002044F8BD70B50D460C2106461446FFF7BB
:103BB000C5FF10B90123337070BD40F2B313056027
:103BC0004360846070BDFFFF08B503788BB943691B
:103BD0008B4206D80848094A094B4FF4AF711BF0D5
:103BE00025F803F18043013B5B1A826952F82300F8
:103BF00008BD002008BD00BFCA030300A8020300DF
:103C0000D803030008B5037873B9436933B907488B
:103C1000074A084B4FF4AB711BF008F8013B82696F
:103C2000436152F8230008BD002008BDCA03030009
:103C300090FE0200F703030038B5037804460D46F2
:103C4000BBB9016943698B420DD31031806989008A
:103C50000122FCF757FC10B90123237038BD2369FA
:103C6000A061103323616369A269591C616142F844
:103C7000235038BD2DE9F347C4690E4694F840102F
:103C80000829054618D1E06CA16CFDF735FB3378A7
:103C9000802B04460CD1810041F0020105F12C007B
:103CA00000220BF0E5F918B1416841F0010162E032
:103CB000210141F002015EE009290BD100222346D7
:103CC000E06CA16C09F0BEFBC30702460CD540F0C6
:103CD000010150E00A290DD100940122E06CA16C91
:103CE000002309F037FC0246A16B2846FFF75AFF74
:103CF000014640E0A1F10B03012B39D8A16CE06C27
:103D00000A2902D8FDF7F8FA01E0FDF7C1FA0646E4
:103D100094F8403030B10B2B0CBF06210A2141EA48
:103D2000001128E00B2B28464FF01001D4F838A0E2
:103D3000D4F84C90A76C0CBF4FF0B1084FF0B2080C
:103D4000FFF7FCFE044618B901232B70314612E040
:103D500048F400734360C0F800A03846FCF79CFBB1
:103D600049463A461FF087FAE760A060214602E024
:103D7000090141F00E01284602B0BDE8F047FFF707
:103D80005BBFF8B51D46037804460F46164603BBD5
:103D9000416883688B420DD31031C068C90001228D
:103DA000FCF7B0FB10B901232370F8BD6268E06036
:103DB00010326260A268E168531CA36051F83200BF
:103DC00067F3170041F8320001EBC2033278DA7072
:103DD0005D60F8BD01F46043B3F5005F10B504D039
:103DE0000C480D4A0D4BD82107E0C1F30B03AF2B54
:103DF00005D90848084A0A4BDA211AF017FFC269A8
:103E0000916B084ABDE8104052F823200023FFF7C9
:103E1000B8BF00BFCA030300A003030014040300DB
:103E20007304030098FF0200EE2807D010F001038E
:103E300006D043080CBF01200020704701207047C6
:103E400018467047B0F5877F07D010F0010306D001
:103E5000430814BF01200020704701207047184616
:103E60007047FFFF10F0010203D040F0010008602E
:103E700013E0B8B110F0030311D10279B32A10D1C5
:103E800083680B6013F0010007D19A070AD11B6801
:103E900005481B1A58425841704701207047104688
:103EA00070471846704700BF2C5303002DE9FF47A9
:103EB0001678832E0446884617461D460AD10021EF
:103EC000FFF782FE30B1830740F0DB810379872B57
:103ED00040F0D781A6F16403012B3AD8A9462E46BB
:103EE000B9F1000F0ED009F1FF3920464946FFF71E
:103EF0006BFE6369A2699B1B824642F82300B9F1FD
:103F0000000F03D1013E4FF0000915E03B78642B10
:103F100007D1FFF797FF0028F4D15046FFF784FF41
:103F200006E0FFF781FF0028ECD15046FFF78AFF3B
:103F30000028D5D1013ED3E7B14505D22046FFF791
:103F400061FE09F10109F7E7AD1B012D00F0998130
:103F500017E0672E15D120460021FFF735FE0646F3
:103F6000FFF762FF28B93046FFF76CFF48B1EE2536
:103F700001E04FF487752046FFF744FE20462946AE
:103F80007DE13B78A3F16E02022A2BD8691E204600
:103F9000FFF71AFE01A9FFF765FF002800F0538123
:103FA0003B786E2B06D06F2B0CBF4FF001094FF002
:103FB000020901E04FF00009AE1E002EC0F2308170
:103FC00031462046FFF700FE02A9FFF74BFF00280D
:103FD00000F0398148460199029A0AF0C3FC013E7B
:103FE0000190EAE703F0FD02712A01D0752B3CD164
:103FF000691E2046FFF7E8FD01A9FFF733FF0028FF
:1040000000F02181AE1E002E40F30A81711E204671
:10401000FFF7DAFD02A9FFF725FF002800F0138162
:1040200020463146FFF7D0FD974BC0F307101844E8
:1040300010F8319CB9F1FF0F00F0058102980EF0E5
:1040400065FCB9F1040F02D8002806DAFBE0B9F1EB
:10405000070F02D9002800F0F68048460199029A1D
:104060000AF080FC023E0190CDE7782B25D100219B
:104070002046FFF7A9FD01A9FFF7F4FE002800F094
:10408000E28020460121FFF79FFDC0F30710312891
:1040900009D0322809D03F2809D07C487C4A7D4B82
:1040A00040F26A215DE0032002E0042000E00520E8
:1040B000019909F035FE0190B2E0202B72D1204623
:1040C0000021FFF781FD0646002800F0BC8010F0BB
:1040D000030904D10379223B012B40F2B48020462E
:1040E0000121FFF771FD00F00F03022B40F0AB80C0
:1040F000B9F1000F40F0A78033797D2B40F0A38009
:10410000B36803F00F02022A40F09D8040F2B5111F
:10411000B1EB131F40F09780F368002B00F0938001
:10412000990740F0908019798D2940F08C80D3F860
:1041300008A01AF0010F4FEA101601D1227082E098
:10414000B10004F12C0041F0020101220AF090FFBD
:1041500043684FEA6A0933B14C484D4A4E4B4FF41D
:1041600023711AF063FD4FEA490949F001034360E6
:104170003046FDF787F903785F2B20460BD1FFF718
:1041800041FD2046FFF73EFD00212046434A0B46F5
:10419000FFF78CFE75E0FFF735FD20465146FFF72F
:1041A0004BFD50E07D2B4ED101212046FFF70CFD49
:1041B000002106462046FFF707FD06F00F03022BFD
:1041C00041D100283FD083073DD103798F2B3AD1CD
:1041D000816801F00F03022B05D02C482C4A304B8C
:1041E00040F2AE21BDE74FEA1119310989002D488F
:1041F00041F0020100220AF03BFF20B3406849462B
:1042000002AA09F0A9FE029BEBB1D90705D49A07CF
:1042100019D11968244A914215D1039A9AB9019388
:1042200025B12046FFF7EEFC013DF9E7019AD307DF
:10423000204602D542F0010121E02946FFF7B2FCF9
:10424000014620461BE0AE1CB60020463146FFF773
:1042500075FC814610B90123237012E0C0F800807C
:104260003B7843EA05234360064435B12046FFF717
:10427000C9FC013D46F8040DF7E720464946FFF723
:10428000DBFC04B0BDE8F0878A070300CA03030023
:10429000A606030094040300AD0403000C08030009
:1042A000C8040300F4FE02002C530300036830B579
:1042B00013B91360184630BD9C0702D0106001206E
:1042C00030BD5C68E5B28D42F8D103F108011160A0
:1042D000200A30BD2DE9F04F93B000244023019017
:1042E0004FF400700E46924605938DF810400694E8
:1042F000FCF7DFF820230790802008930994FCF74F
:10430000D8F821460A900FA80B960D940E940AF047
:1043100067FE079B002B00F0D6810A9B002B00F064
:10432000D281BAF1000F05D0BAF1020F0CBF0423FD
:10433000012300E053469F4CB16B54F8232004A89E
:104340000023FFF71EFD00270294069B002B00F0C0
:104350009A819DF81010002940F09581079A029DDE
:10436000013B02EBC3000693C47852F8333055F892
:104370002450446895F801B00BF03002202AC3F3B2
:1043800017080BF00F0940D0302A00F0FE80102AE9
:1043900040F0738114B10FB90027D6E705EB440252
:1043A0004C4530D232F8023F03F47041B1F5805FE2
:1043B0000DD196F84010C3F30B0399421FD104A806
:1043C0002946FFF757FC3046FFF7B5FBE4E7B1F5A8
:1043D000005F05D07848794A794B4FF452711BE061
:1043E000631C4B4504D204A841462A46FFF7C9FC8A
:1043F00005EB440404A86188FFF7ECFCCCE701342A
:10440000CEE7012C37D801279FE78FB134B96A482E
:104410006A4A6C4B40F257311AF008FC35F81430F8
:1044200003F47043B3F5405FEBD104A8FFF704FC3D
:1044300005EB440709E0082A03D104A82946FFF741
:1044400019FC3046FFF777FB01344C4524D237F88E
:10445000023F03F47042B2F5005F14D0B2F5405F42
:1044600011D0B2F5805F13D196F84020DBB29A42AA
:10447000E1D0002CC7D096F84030062B40F03081B8
:104480005148524932E104A841462A46631CADE72F
:10449000494840F28731F3E005D04748474A4C4B42
:1044A0004FF46371B8E7BAF1000F07D02B78202BD7
:1044B00004D104A80021FFF787FB20B1002705EBFA
:1044C000440BB94632E004A80121FFF77DFB8707C2
:1044D00004D000F00F00022805D1EFE70028EDD04E
:1044E0000379B12BEAD104A8FFF78CFB04A8FFF7EE
:1044F00089FB38B1810705D10379B12B02D18068DE
:10450000FCF702F804A84146324A0023B2E03BF827
:10451000023903F47041B1F5805F04F1FF3408D132
:10452000DBB2082B02D1013709F10109002CEED1D1
:1045300008E004A83946FFF747FB08B109F1010973
:104540000137F3E7B9F1010F3B4611D16A78520602
:104550000ED52546BC4204A806D0FFF753FB013414
:10456000002818BF0546F5E72946FFF765FB13E766
:1045700095F90120002A04DA04A80021FFF75CFB6A
:104580007B1C04A841462A4674E0AFB3B9F1020F80
:1045900004D1012C3FF437AF00224FE0012C3FF44F
:1045A00032AF14F0010249D0B9F1030F7FF463AFC9
:1045B000012243E098FF0200CA0303002CFE020020
:1045C000EC04030002050300004A03008305030016
:1045D000080503000C08030096F84010CCF30B0C00
:1045E000614504F10104D1D11AB904A82946FFF7A5
:1045F00041FB3046FFF79FFA0BF00102224005EB2A
:104600004201B1F802C00CF47041B1F5805FE3D013
:10461000B1F5005F0ED104A841462A46631CCDF8CF
:104620000CC0FFF7AEFBDDF80CC004A86146FFF735
:10463000D1FB8AE6454840F20E4121E02CB94348BF
:10464000434A444B40F21341E6E61BF0010F04F1EC
:10465000FF3706D0AB8803F47043B3F5805F08BF23
:104660006708012F02D1002A3FF496AE04A8414604
:104670002A463B46FFF71AFC8EE6344840F22B41AF
:10468000334A354BC8E60FA80AF0CCFC0E9850B15F
:10469000416800220831FBF735FF0E9B5A681A600B
:1046A0000D9A5A600D939DF810307BB1022B02D108
:1046B0002A482B491AE0012B05D02448244A294BCB
:1046C0004FF48961A8E6284828490FE096F8404051
:1046D000002C7FF4D0AE099B002B3FF4CCAE0AE057
:1046E000022B07BF224823491C4823490CF0F0FE47
:1046F0000023044609E0012B05D01448144A1F4B3F
:1047000040F2674188E60A9B1B6807980C93FBF709
:10471000FBFE0A98FBF7F8FE5CB120463168B26BED
:1047200000230CF025FF3046FFF76EF92046FBF71B
:1047300093FE3046FFF768F90CAB93E80300019B4A
:1047400083E80300184613B0BDE8F08FCA030300E6
:104750002CFE02000F0503009B5503000C470300CD
:104760001605030032050300684703005B050300DC
:10477000004A030095050300C9050300D80503009E
:1047800010B5406820B14468FBF7BEFE2046F9E74B
:1047900010BDFFFF2DE9F041054630200E46904642
:1047A0001F46FBF796FE072D04460570C660A0F86D
:1047B000108001D0012D0BD10EB1B30705D00C48EC
:1047C0000C4A0D4B31211AF031FAB3681B0901E094
:1047D0000A4B5B5D638208F0E1FF0423606167764A
:1047E000E3842020FBF758FEE0622046BDE8F0811C
:1047F00041080300D20803004F0803001E0803000D
:1048000010B50446C06AFBF77FFE2046BDE81040A5
:10481000FBF77ABE30B5048D0022A24207D2C36AEC
:1048200003EBC2035D688D4202D00132F5E700233D
:10483000184630BD70B504460E461546FFF7EAFF30
:1048400008B1002319E0E18C238D8B4208D3063197
:10485000E06AC900FBF749FEE38CE0620633E384BB
:10486000228DE16A531C01EBC2002385002301F86D
:10487000323043704380466001232B7070BD436823
:104880000BB11846FBE7FFF7C5BFFFFF4368F7B55D
:1048900007460C461646002B39D05D68002D36D0F1
:1048A00018463146FFF7B6FF2B460028F5D00378AF
:1048B000023B022B2BD8042323707C6884B9164852
:1048C000164A174B6E2112E0204631460DF10702C1
:1048D000FFF7B0FF9DF807305BB1042303706468F5
:1048E0006368002BF0D10C480C4A0E4B70211AF073
:1048F0009DF90378022B02D10323037009E0033BE7
:10490000012B06D90448054A074B7E21EFE7002317
:10491000237003B0F0BD00BF410803002508030069
:104920006B0803008108030093080300838B426A2D
:104930000133918C9BB29942838338BF9384704733
:104940002DE9F04180461F46B9B111F003050FD1A2
:104950004868C3B293420BD1060A0C1DB54205DA72
:10496000404654F8041FB8470135F7E7BDE8F08129
:1049700040463B46BDE8F0411847BDE8F081FFFFE7
:104980008968024B9822FFF7DBBF00BF0168000077
:104990008968024B4022FFF7D3BF00BF994E000049
:1049A000C36A10B50446D3F8C830806A9847E36AF2
:1049B000A06A9B6D0F219847E36AA06AD3F824315F
:1049C000BDE81040184738B5C36A04461B6F806ABB
:1049D0009847E36AA06AD3F8145100210B460A46AF
:1049E000A8472046BDE83840FFF7DABFC36A8968A8
:1049F000DB6E806A09091847C36A89685B6E806A42
:104A0000184710B50446084611462268FFF7C2FE53
:104A1000636A436000238360236A0BB9206210BD80
:104A20009A680AB11346FBE7986010BD2DE9F74F6D
:104A3000B2F1000904460D469A4605DA2F48304A7D
:104A4000304B40F2272106E0002B06DA2B482C4A97
:104A50002D4B4FF40A711AF0E9F818BF0B7EA1F83C
:104A60001E901CBF43F008030B76436A1B785BB9AA
:104A7000E36AA06AD3F8086129464A465346B44619
:104A800003B0BDE8F04F60470026B046636A1A8D58
:104A9000964223DADB6A03EBC60B13F83630033B8E
:104AA000012B19D800272B8D9F4215DAEB6A03EBF7
:104AB000C70213F83730042B0CD1DBF8041053680D
:104AC000994207D1E36AA06A9B69BBF80220984724
:104AD00008F101080137E6E70136D7E7B8F1000F22
:104AE000C6D0E36ACDF800A0D3F80C61A06A2946CD
:104AF00042464B46B04703B0BDE8F08F7F0A030043
:104B00004E1903008F0A0300A30A03002DE9F041A8
:104B1000044688460021C579878AC68AC171818288
:104B2000C18211461A46104BFFF70AFFA368C3B9AA
:104B3000E18A51B1A38A43B9E36AA06AD3F8E430A9
:104B40009847E36AA06A9B6E984720464146E28AEE
:104B5000A38AFFF76BFF003518BF0125E571A78217
:104B6000E682BDE8F08100BFD160000070B54379F6
:104B7000012B05460C4606D1436A022122465B7E84
:104B8000FFF73FFF206128462169A2681523BDE891
:104B90007040FFF7BBBF70B513464279012A064645
:104BA0000C4604D107212246FFF72BFFA061A5691F
:104BB000E268304629460D23FFF7A8FF688A70BDDA
:104BC0000246407901280B4602D1506A03F0C0BC6E
:104BD000D16A906A526A183103F0E2BC0246407909
:104BE00001280B4602D1506A03F0C3BCD16A906A17
:104BF000526A283103F0D4BC10B5436A5A7E044689
:104C0000FFF7C9FF01462046BDE81040FFF7E6BFA9
:104C10000246407901280B4602D1506A03F0A9BC34
:104C2000D16A906A526A383103F0BABC2DE9F74F65
:104C300005460C4609B9012114E011F003070AD119
:104C40000B793D2B08D1CB681B0913608C68002CB5
:104C5000F1D0012700E0002704F00F03022B07D159
:104C6000210907B91160EB6AA86ADB6C98475AE022
:104C7000A30703D16668F3B2412B06D02B482C4A18
:104C80002C4B40F20E4119F0D1FF17B9A3681B0954
:104C90001360360A04F1040A06F1FF38D3464FF0D8
:104CA0000009B14508DA5BF8040F0009FCF7E5FBE1
:104CB00009F101098044F4E740466946FCF79EFB90
:104CC0004FF000098046B14517DAB9F1000F04D062
:104CD0002E2388F8003008F101085AF8040F01A9C2
:104CE0000009FCF7D4FB019A014640461EF0C3FAC6
:104CF000019B09F101099844E5E70098FCF798FB4E
:104D0000EB6A0146DB6CA86A984767B10834012753
:104D1000B74208DAEB6A54F8041FDB6EA86A090987
:104D200098470137F4E703B0BDE8F08F7F0A03002E
:104D300065090300B60A03002DE9F3418D6805F00B
:104D40000F030E2B04460E4605D03DB3A90725D10F
:104D50002B793A2B02D1009500250BE0372B1DD182
:104D6000AB680093ED682DB94748484A484B40F27C
:104D70004C4152E03A2101AA6846FFF797FA002316
:104D8000019A194683420ADA52F8237040F2CE4E55
:104D900077450CBF013103310133F3E70021F2689D
:104DA000A06A40F23E339A42E36ADB6D13D1984722
:104DB000E36AA06A1B6E02219847E36AA06AD3F8EF
:104DC000E430012198472046294601AAFFF72EFF2B
:104DD000E36A5B6D52E0984706F10C003F216A469A
:104DE000FFF764FA002680460BE09A0710D11A7983
:104DF0003C2A0DD19968E26AA06A136E09099847A6
:104E0000013646450BDA009B53F82630002BECD1D7
:104E10001D4840F274411D4A1E4B19F007FFE36A1A
:104E2000A06AD3F8E430414698472046294601AAB3
:104E3000FFF7FCFE002646451DDA009B53F826507E
:104E400025B1AB0702D12B793C2B03D00E4840F2A1
:104E50007F41E0E7AF68E36AA06A1B6D3F0939460E
:104E60009847E968204609B9394600E00909FFF783
:104E7000B5FE0136DFE7E36AD3F89430A06A9847BD
:104E800002B0BDE8F08100BF7F0A0300671903008C
:104E9000E70A0300100B0300C36A37B504460D464A
:104EA000DB6D806A00219847E36AA06A9B6D0F2141
:104EB00098472046294601AAFFF7B8FE20460199E7
:104EC000FFF78CFE03B030BD036823B919B18B071F
:104ED00004BF0B680360704708B503882BB904480A
:104EE000044A054BAE2119F0A1FE013B038008BD29
:104EF0007F0A0300E41803004D0B030038B58368F4
:104F000004460D465BB9114605480CF0E1FA294606
:104F1000A06004F10C00BDE83840FFF7D5BF38BDF4
:104F20000C4703002DE9F04F0446012362716162D2
:104F300003610B78072B8DB00D46164602D0002179
:104F4000A14A4EE0012A06D9436B006B1B6811464B
:104F500004F108029847EF680FB1BB0705D09B48E2
:104F60009B4A9C4B40F63E4108E03B790B2BBA46EE
:104F700006D09648964A984B4FF4446119F056FE75
:104F80006379032B10D10D210BAA07F10C00FFF759
:104F90008DF9636B0B9A9B680146206B9847A36859
:104FA0006883002B40F00981396909B301F00F05CE
:104FB000022D19D10B0940F21E2293421BD005D8B5
:104FC00040F2951293420AD1012514E040F2762274
:104FD00093420FD0B3F5427F01D103250BE07F4A06
:104FE0002046FFF78BFFEBE020467D4AFFF786FF68
:104FF000022500E000250CA87B6940F80C3D5D21EE
:105000000AAAFFF753F94FF000080590059B984551
:1050100080F2B8800A9B53F828104FEA880B09B138
:10502000880705D069486A4A6E4B40F66641A5E795
:105030000B792A2B00F0A380202B02D020466A4A4D
:10504000CFE78B680BB19A0705D06048604A674B81
:1050500040F6734192E7CA68002AEFD11A797D2A97
:10506000ECD19F6807F00F02022AE7D1D3F80C9029
:10507000B9F1000FE2D019F0030FDFD199F8043035
:105080008D2BDBD10BAA09F10800A321FFF70EF944
:105090003F0940F239229742034621D1012805D029
:1050A0000A9B534A53F80B1020469AE70B9A136851
:1050B00003F00F03022BF3D12169012E01F101034B
:1050C000236158D9636B1268DB68206B120998471B
:1050D000002850D10A9B474A53F80B10204680E71E
:1050E000B7F5BE7F12D1012805D00A9B424A53F87A
:1050F0000B10204675E70B9B1968CF07F5D5012EDD
:1051000039D9206B491004F025FA34E040F2BF127F
:10511000974226D1012805DC0A9B384A53F80B1028
:1051200020465EE70B9A1268D007F5D5012E22D9EA
:105130005210069201279F421DD00B9A52F8272049
:10514000D10705D40A9B2E4A53F80B10204648E796
:10515000206B06990793521004F003FA0137079B5E
:10516000E9E7012E07D9626B206BD2F810C03946EF
:105170001A460B9BE047A3680BB1CA461DE008F135
:10518000010843E76379012B15D9636B206B5B68DA
:10519000294698476379042B0DD1626A236B00215D
:1051A0000091508B0190029103955069DA689B68D9
:1051B000052108F00BFBA36813B1DAF80030E360B7
:1051C0000DB0BDE8F08F00BF680B03007F0A03003D
:1051D000F31903008C0B0300AF0B0300DC0B03007F
:1051E000E90B0300110C0300330C0300560C030001
:1051F0007E0C03009A0C0300AA0C0300C60C0300EB
:10520000EB0C0300014AFFF779BE00BF0D0D030050
:1052100073B50546406A067E0C46B10703D528469D
:105220002146374A63E004F00F01022901D1210928
:105230000DE00CB1A10705D03248334A334B40F69C
:10524000D1212DE0217991420CD1A1680909EB7996
:105250001BB1838B0133838302E0438B0133438390
:10526000012638E0994226D1EB79002BD7D10123D2
:10527000EB71A368002B40D003F00F02022A05D186
:10528000037E43F001030376A16811E09A0702D17F
:105290001B79142B06D01B481B4A1D4B40F6ED21F1
:1052A00019F0C4FC037E43F001030376A3689968F8
:1052B000090903260FE09DF81830994205D01148DE
:1052C000114A144B40F6F421EAE7A16846F00206C1
:1052D00006760909052681B1686A0DF10702FFF714
:1052E000A9FA9DF807302BB90B4A28462146FFF74B
:1052F00005FE02E002230370467002B070BD00BFDD
:10530000C90503007F0A03001A1903004F080300B0
:105310002A0D0300610D03008F0D030007B519234B
:10532000009317221823FFF773FF03B05DF804FB07
:1053300007B5112300930F221023FFF769FF03B075
:105340005DF804FB2DE9F04F0F46002557F8043FA8
:1053500089B004464FEA1328BB46A946AA464545EC
:1053600039DA5BF8040F820712D000F00F06062E20
:1053700007D00A2E05D03648364A374B40F603117F
:105380000CE000090191FCF778F80199824417E0DC
:1053900030B92F482F4A314B40F6061119F046FC20
:1053A0000379B12B07D0B22B07D02948294A2C4BBF
:1053B00040F60B11F2E7062600E00A26C3689A447D
:1053C00035B14E4505D02046264AFFF797FD3CE013
:1053D000B1460135C3E76379042B05D0E36AA06ABF
:1053E0005B6E2149984730E0514604A8FCF713F959
:1053F000069D4FF0000AC24518DA57F8046FB3074C
:105400000AD003A93009FCF742F8039A014628465E
:105410001DF031FF039B05E02846B168F2681DF0DE
:105420002AFFF3681D440AF1010AE4E7E36A0F4822
:105430005D6E0F4BA46A04A9B9F1060F18BF184698
:105440000FF058FC01462046A84709B0BDE8F08F90
:105450007F0A0300531D0300A80D0300EA0D03009B
:10546000110E0300430E03003C590300986403002F
:1054700048640300438B70B5044613B90B4AFFF729
:105480003DFDA28BE38B9A4206D20948094A0A4B9A
:1054900040F2C33119F0CAFBE16AA06AD1F8B050FA
:1054A000618BD21A2B46BDE8704018476A0E030084
:1054B0007F0A030031090300820E0300038B70B5DD
:1054C000044613B90B4AFFF719FDA28BE38B9A42EE
:1054D00006D20948094A0A4B40F2BB3119F0A6FB33
:1054E000E16AA06AD1F8AC50218BD21A2B46BDE8F4
:1054F00070401847BE0E03007F0A0300F109030045
:10550000820E030070B5054600293BD08A0739D1C9
:105510000B790F2B12D0102B08D18968002931D0BC
:105520008B072FD10B79142B2CD107E0112B05D031
:105530001548164A164B40F624310DE0CC680CB3E2
:105540008968686A0909FFF765F9034630B90E48AA
:105550000E4A104B40F62E3119F068FB04F00F0193
:10556000022908D1EA6AA86A16685A88B44623094B
:10557000BDE87040604728462146074ABDE87040B4
:10558000FFF7BCBC70BD00BF7F0A0300BE1903005B
:10559000D30E03000F0F03001F0F030037B504469F
:1055A0000D4600294BD0CA0704D5C36A806ADB6D5B
:1055B000491043E08B072ED005F00F05062D4FEA6A
:1055C000111106D00A2D08D0022D1CD1FFF7F8FAD0
:1055D00035E0C36A806A1B6E30E04379042B04D047
:1055E000C36A18495B6E806A28E0084601A9FBF788
:1055F0004EFFE36A0199A46A5D6E0FF06FFE0146EB
:105600002046A8471BE0052919D0C36A806A9B6D14
:10561000C9B2984713E0C36A09685B69806A984712
:105620002A79094B53F8223033B90848084A094B04
:1056300040F6B92119F0FAFA20462946984703B0F6
:1056400030BD00BF3C590300701A03007F0A0300FD
:10565000560A03004A0F03002DE9F14F04460D4698
:1056600016461F462846FEF7DFFB002856D128467F
:10567000FEF7E8FB00285FD1002D64D0A90762D1B6
:105680006B684FEA1328DBB2642B04D13EB10435BA
:105690004FF000092CE0652B36D1002EF7D0D4F85E
:1056A000109009F10103236105F1040B4FF0000A8A
:1056B00008F1FF339A450ADA20465BF8041F86F0AA
:1056C00001024B46FFF7C8FF0AF1010AF0E708F1B3
:1056D0000108204655F828103B463246FFF7BCFF2C
:1056E000E36AA06A9B6C494601B0BDE8F04F1847D9
:1056F000C14536DA204655F8041F32463B46FFF7CF
:10570000ABFF09F10109F3E7672B03D1AD6886F020
:105710000106A7E7832B16D1AB680BB90EBB0CE0D3
:105720009A0702D11B79872B06D00F480F4A104BDE
:105730004FF4A27119F07AFA9EB1E36AA06AD3F825
:10574000A0303946D0E720462946FFF727FFE36A15
:10575000A06AD3F8A43031463A4601B0BDE8F04F14
:10576000184701B0BDE8F08F7F0A0300010903006C
:10577000540F0300436A1B78072B10B50A460446F2
:1057800006D0022B04D0124ABDE81040FFF7B6BB8A
:10579000916829B9E36AA06A9B6D0F2198470FE0D1
:1057A0008B0720460AD10B79AF2B07D18968FFF709
:1057B000F5FE2046BDE81040FFF7F2B8FFF7EEFE19
:1057C000E36AA06AD3F82031BDE81040184700BF53
:1057D000920F030070B54D682D0A022D04460B464A
:1057E00005D01C481C4A1D4B40F635110BE0CD6816
:1057F00025B1A90702D12979AB2906D01548164A47
:10580000174B40F6361119F011FA4179012906D1EA
:10581000466A11461A46737EFFF7F3F86861002264
:10582000134620466969FFF701F9E9682046FFF74A
:10583000B5FEE36AA06AD3F8C8309847E36AA06A65
:10584000D3F810510022AC4601211346BDE8704048
:10585000604700BF7F0A0300DD190300AB0F0300A0
:10586000D40F03002DE9F04F87B004460391019255
:105870001E460D4649BB83793BB3436A1B78072B11
:1058800023D14FF4A571FFF79BF9626A108D294669
:10589000814216DAD36A03EBC1035D78ED070ED5BA
:1058A000E26AA06A95695A880121A847E36AA06A5A
:1058B000D3F81051002202211346A8478DE0013190
:1058C000E6E720460021464A22E003A8A32105AAD4
:1058D000FEF7ECFC4FF0000A8346D046D146554611
:1058E000574604E045F0010599460AF1010ADA45F8
:1058F0004BDA059B53F82A30002B3DD099073BD15A
:105900001A79A52A07D1EA07ECD5364A2046194666
:10591000FFF7F4FA61E0A62A09D1A80703D52046CB
:105920001946314AF4E745F002059846DDE7A72A13
:1059300022D1DA6822B1910702D11279AB2A15D0AF
:10594000996801F00F02022A03D020461946274A1F
:10595000DEE7E26AA06A126E029309099047029B91
:105960002046D968FFF71AFE0137BEE720461946E0
:105970000622FFF72FFF06E0204619460FB11C4A0A
:10598000C6E7FFF70BFE0136AFE7CDB1B9F1000F67
:1059900004D1E36AA06A9B6E984704E02046D9F8D8
:1059A0000810FFF7FBFDB8F1000F04D1E36AA06A0D
:1059B0009B6E984704E02046D8F80810FFF7EEFDEC
:1059C000019AE36A12B1D3F814C101E0D3F810C10F
:1059D000A06A31463A462B46E04707B0BDE8F08F53
:1059E0000D1003002B100300421003005A10030097
:1059F0007B10030070B50D4641790129044613461A
:105A000003D12A46FEF7FDFF6861E36AA06A5B6F77
:105A100098476E690022134620463146FFF706F884
:105A2000E36A718A1B6EA06A9847E96829B18B07FF
:105A300003D10B79A22B08BF002100222046A271BE
:105A40000223FFF70FFF708A70BD10B5436A5A7EBC
:105A50000446FFF7CFFF01462046BDE81040FFF7A0
:105A6000BDB8002289681346FFF7FCBE38B50C4666
:105A70000546C968FFF792FD2846A168BDE8384091
:105A8000FFF78CBD0B79932B70B5044605D02448E5
:105A9000244A254B40F6FB112AE08D682DB9C36AD4
:105AA000806A9B6D0F21984732E0A9072DD12B7991
:105AB000952B06D1C36A806A9B6D0F219847A96810
:105AC00019E0962B21D1A968FFF768FDEB680BB1AF
:105AD0009A0705D01248134A144B4FF4216107E08E
